:020000040800F2
:10000000301C00200D02000879380008D9300008A3
:100010002D340008190600088F5600080000000063
:10002000000000000000000000000000233C000869
:10003000D108000800000000213C00085D3C0008D9
:1000400027020008270200082702000827020008EC
:1000500027020008270200082702000827020008DC
:1000600027020008270200082702000827020008CC
:1000700027020008270200082702000827020008BC
:1000800027020008270200082702000827020008AC
:100090001956000827020008270200080D0C000866
:1000A00027020008E13C0008270200082702000898
:1000B000270200082702000827020008270200087C
:1000C000270200082702000827020008270200086C
:1000D000270200082702000827020008270200085C
:1000E000F70B000827020008270200082702000873
:1000F000270200082702000827020008270200083C
:10010000270200082702000827020008270200082B
:10011000270200082702000827020008270200081B
:10012000270200082702000827020008270200080B
:1001300000F002F800F05AF80AA090E8000C82449F
:100140008344AAF10107DA4501D100F04FF8AFF27C
:10015000090EBAE80F0013F0010F18BFFB1A43F0A5
:100160000103184744590000645900000A444FF045
:10017000000C10F8013B13F0070408BF10F8014B06
:100180001D1108BF10F8015B641E05D010F8016B4B
:10019000641E01F8016BF9D113F0080F1EBF10F8AF
:1001A000014BAD1C0C1B09D16D1E58BF01F801CBD2
:1001B000FAD505E014F8016B01F8016B6D1EF9D555
:1001C0009142D6D37047000000230024002500266A
:1001D000103A28BF78C1FBD8520728BF30C148BFAA
:1001E0000B6070471FB51FBD10B510BD00F070F952
:1001F0001146FFF7F7FF05F0A3FA00F08EF903B4FC
:10020000FFF7F2FF03BC00F095F9000009488047B2
:1002100009480047FEE7FEE7FEE7FEE7FEE7FEE7E8
:10022000FEE7FEE7FEE7FEE704480549054A064B00
:1002300070470000DD3C0008310100083016002046
:10024000301C0020301800203018002053EA020C27
:1002500000F069802DE9F04B4FF00006002B1FBF26
:10026000B3FA83F503FA05F424FA05F65E4012BFEB
:100270001643B2FA82F502FA05F4C5F120051EBF55
:1002800022FA05FC44EA0C04203556EA044C4FEAF5
:10029000144418BF641C4FF000084FF0000990424E
:1002A00071EB030C39D3002919BFB1FA81F701FAB8
:1002B00007F6B0FA80F700FA07F6C7F120071EBF6D
:1002C00020FA07FC46EA0C062037B6FBF4FCA7EB45
:1002D0000507103F07F01F0BCBF120060CFA0BFBB4
:1002E0002CFA06F644BFB3460026202FA4BF5E4674
:1002F0004FF0000B5BEA060C08BF4FF0010B19EB47
:100300000B09ABFB027C48EB0608C01B06FB02CCCA
:100310000BFB03CC71EB0C01C1E70B4602464146D7
:100320004846BDE8F08B13B54FF000004FF00001D8
:10033000AFF30080BDE81C407047B2F120030AD53E
:10034000C2F1200320FA02F001FA03F321FA02F1CC
:1003500040EA0300704721FA03F04FF000017047B4
:1003600010B54C1084EA530404D54042C1F1000199
:1003700038BF491E1B4204D55242C3F1000338BFA7
:100380005B1EFFF763FF14F0804F04D04042C1F1C1
:10039000000138BF491E14F0004F04D05242C3F18F
:1003A000000338BF5B1E10BD10B5431C02E010F8FF
:1003B000011B71B18107FAD14FF0013202C88C1ACA
:1003C0008C4314EAC211F9D0C01A0A0603D0C01E29
:1003D00010BDC01A10BD0A0401D0801E10BD090254
:1003E000FCD0401E10BD40EA010370B59B072ED122
:1003F0004FF00136042A2AD308C810C99D1B9D431B
:10040000121F15EAC61517D0D8B2E1B2401A50EA49
:10041000056110D198B2A1B2401A50EA05410AD143
:1004200023F07F4024F07F41401A50EA052102D199
:10043000180EA0EB146070BDA342DBD018BA21BA2D
:10044000884201D9012070BD4FF0FF3070BD0AB95C
:10045000002070BD10F8013B11F8014B63B1A342BD
:100460000AD1521E08D010F8013B11F8014B1BB104
:10047000A34201D1521EEDD1181B70BD4FF00002F6
:1004800000B5134694469646203922BFA0E80C508A
:10049000A0E80C50B1F12001BFF4F7AF090728BF65
:1004A000A0E80C5048BF0CC05DF804EB890028BFE1
:1004B00040F8042B08BF704748BF20F8022B11F00A
:1004C000804F18BF00F8012B704770477047704786
:1004D000754600F02BF8AE4605006946534620F0FD
:1004E0000700854618B020B5FFF79EFEBDE8204006
:1004F0004FF000064FF000074FF000084FF0000BE0
:1005000021F00701AC46ACE8C009ACE8C009ACE892
:10051000C009ACE8C0098D46704710B50446AFF37A
:1005200000802046BDE81040FFF769BE00487047D4
:10053000CC15002001491820ABBEFEE726000200C2
:100540007047000070B5044600688168C943C90758
:1005500017D1816821F00101816001F0B1F90546F0
:100560000AE000BF01F0ACF9401B022804D9206862
:100570008068C043C00706D020688068C043C007B9
:10058000F0D0002070BDA06A40F01000A062E06AC8
:1005900040F00100E062012070BD0000F8B50026C7
:1005A0000446009600688168C943C9072DD0816858
:1005B00041F001018160164816490068B0FBF1F076
:1005C00000E0401E00900028FBD101F079F90546BB
:1005D00016E000BF01F074F9401B022810D9206812
:1005E0008068C043C0070BD0A06A40F01000A06232
:1005F000E06A40F00100E06284F824600120F8BD68
:1006000020688068C043C007E4D10020F8BD000026
:100610005000002040420F00FEE7002070470020FD
:100620007047000010B500220449054803F06EFD34
:100630000449034803F064FD002010BDD40C0020E1
:1006400010040020D408002010B50446096804F006
:100650002BFC2146034803F053FD024803F034FD10
:10066000002010BD10040020094A10B5D2F8B822AD
:10067000D2F814220AB1012010BD0A4601460448EE
:1006800003F044FDBDE81040014803F09DBD0000AB
:1006900010040020022801D300207047024901EB1A
:1006A000C000B0F90400704720030020022801D3E5
:1006B00000207047044A19B102EBC000408870471F
:1006C00032F8300070470000200300200148C08845
:1006D00070470000200300202DE9F0470020284A41
:1006E000014600BF22F8301002EBC003401C5980C5
:1006F0009980C0B2D9800228F4D3DFF888902248CC
:10070000A9F8001000F020FB204800F01DFB1E4857
:100710000068816841F4E04181601C48006881689C
:1007200041F4E04181600027B8463E463D463C46E4
:100730000021154804F0BCFF07440121124804F0D1
:10074000B7FF80440C21114804F0B2FF05440D218D
:100750000E4804F0ADFF641CE4B20644402CE7D31D
:10076000B909A9F802104FEA9811A9F80410B109C3
:10077000A9F80610A909A9F80810BDE8F08700003B
:10078000200300205400002010020020400200201E
:100790002DE9F04108220021484804F0ADFF07464A
:1007A00008220121454804F0A7FF064608220C2133
:1007B000434804F0A1FF054608220D21404804F0FB
:1007C0009BFF0446082204213D4804F095FF3D4963
:1007D000034608803C48078046804A88974202D9F1
:1007E000BA1A92B200E000228F88BE4202D9F61BEC
:1007F000B6B200E0002640F6E4477A43170B40F615
:10080000E442564342F2FC125743304A360B42F25E
:10081000FC1C06FB0CF6B7FBF2F7B6FBF2F63FB298
:1008200036B2B74201DB878003E0C6F1000CA0F8C6
:1008300004C04FF0000C142F03DA142E01DAA0F8D4
:1008400004C004814581CE88B44202D9A41BA4B25D
:1008500000E0002409898D4202D9691A8DB200E0B6
:10086000002540F6E4414C43210B40F6E444654347
:100870002C0B42F2FC156943B1FBF2F16C43B4FB63
:10088000F2F209B212B2914201DB818101E05442DD
:100890008481142903DA142A01DAA0F80CC040F686
:1008A000E4414B43190B4EF25832514340F6980243
:1008B000B1FBF2F1C180C181BDE8F08110020020DE
:1008C00040020020540000202003002080841E00ED
:1008D0007047000008490A880849098828B101289A
:1008E00001D102E029B102207047002AFAD100208C
:1008F000704701207047000000F0030800F803086B
:1009000010B586B00020009001200D4CCDE90240CA
:1009100004A9684600F0FEFD70B900221346214686
:10092000012000F055FE38B90648029004A9684637
:1009300000F0F0FD002800D0042006B010BD00003B
:1009400000F0030800F80308F0B587B000F080FE5F
:100950003E4D29883E4E30880022009201220392AB
:100960004FF6FF72002963D0A1F6EE61B1F5604148
:1009700023D001F6EF61B1F5005F15D150B1A0F5BC
:100980006E41EE3910D104A96846029500F0C2FD0F
:10099000E0B901E0029550E0002213463146012003
:1009A00000F016FE90B94DE0FFF7AAFF040049D011
:1009B00000F004FE204607B0F0BD58B19042F3D1DC
:1009C00004A96846029600F0A5FD50B300F0F6FDBC
:1009D0000420F0E72F461F4D0024F98835F8140055
:1009E000814213D005A900F0A3F878B91749BDF8E2
:1009F00014200023091D012000F0EAFD134935F8F9
:100A000014200023891D012000F0E2FD641CA4B223
:100A1000032CE2D3002213463946012000F0D8FD12
:100A20000AE0002213462946012000F0D1FD09E02A
:100A30000028B9D0904205D0029604A9684600F07B
:100A400069FDAFE700F0BAFD0020B4E700F003084D
:100A500000F80308A05A00082DE9F047804686B048
:100A60000D460020FFF736FF022857D02D492E4EA5
:100A700058B134464FEA01064EF6EE620023214695
:100A8000012000F0A5FD70BB01E00C46F4E729460B
:100A9000404600F06FF8002840D10027DFF88C9026
:100AA000BA4600BF39F8170040450DD004A900F040
:100AB0003FF848B9251D04F5006003E02968491C8A
:100AC00012D02D1D8542F9D37F1CBFB2032FE9D36D
:100AD0000120CDE9026005A9CDF800A0684600F02C
:100AE00019FD00B911E018E0BDF8102000232946D7
:100AF000012000F06DFD80B939F817200023A91CF2
:100B0000012000F065FD40B9DEE7002213462146D2
:100B1000012000F05DFD002800D0042006B0BDE8F3
:100B2000F087000000F8030800F00308A05A00084E
:100B300070B505460C460020FFF7CCFE02280ED00B
:100B400020B10A4800F2FE72001D0AE00848F9E7E9
:100B50001188A94204D132F8020C2080002070BD17
:100B6000121F8242F4D2032070BD000000F8030877
:100B700000F0030870B506460D460120FFF7AAFEF7
:100B800002280DD018B10F4C04F5006004E00E4CA3
:100B9000FAE72168491C04D0241D8442F9D30120BE
:100BA00070BD2A4600232146012000F011FD38B90E
:100BB00032460023A11C012000F00AFD0028EFD0DE
:100BC000042070BD00F8030800F0030870B50D465E
:100BD000064600F03DFD29463046FFF7CBFF0446B0
:100BE000012804D129463046FFF736FF044600F0BD
:100BF000E5FC204670BD10B54FF4806000F046FD66
:100C0000BDE810404FF4006000F040BD10B540203A
:100C100000F03CFD802000F039FD4FF4807000F0C2
:100C200035FDBDE810404FF4007000F02FBD72B6E6
:100C3000FEE7000006490020C8610648016941F04E
:100C400004010161016941F0400101617047000048
:100C50000003002000200240064A0021D16106491D
:100C60000A6942F002020A614861086940F04000E6
:100C7000086170470003002000200240044B00225E
:100C8000DA61044A136943F001031361018070477C
:100C9000000300200020024014480022C168CB0657
:100CA000134904D5CA6942F00202CA611022C3681E
:100CB0005B0705D5CB6943F00103CB6142F0040229
:100CC000C369DB0707D0CB6943F00403CB61C1697B
:100CD00021F00101C161A2F58071013901D0C2602A
:100CE0007047C16921F00101C161704700200240D5
:100CF0000003002070B5054600F0E2FD0646114CE9
:100D000009E0681C07D025B100F0DAFD801BA8427D
:100D100001D9032070BDE068C007F2D1E068800609
:100D200001D52020E060E068C00605D4E069C00776
:100D300002D1E068400703D5FFF7AEFF012070BD88
:100D4000002070BD00200240F8B500250446009543
:100D500090F8240001280BD0012084F824002046BC
:100D6000FFF7F0FB2046FFF719FC060002D050E029
:100D70000220F8BDA06A20F4885040F00200A06272
:100D8000022001F005FB25490968B1FBF0F04000A5
:100D900000E0401E00900028FBD12068816841F0EF
:100DA0000801816000F08CFD074608E000F088FD36
:100DB000C01B0A2803D920688068000715D4206862
:100DC00080680007F2D42068816841F004018160E6
:100DD00000F076FD074612E000F072FDC01B0A2805
:100DE0000DD920688068400709D5A06A20F002006C
:100DF00040F01000A06284F824500120F8BD206863
:100E000080684007E8D4A06A20F0020040F00100AA
:100E1000A06284F824503046F8BD00005000002045
:100E2000F8B50022009290F8244083681546012C02
:100E30001CD0012480F82440D3B14E680B691F24D4
:100E40009E4226D81F059B1BC3F103030E6803EBCC
:100E500083039E40A7F5801737439C40036844F402
:100E600040169C6BB44327439F631EE00220F8BDED
:100E70004B68012B05D0826A42F020028262012277
:100E800013E003689C6B0E686FF3150444EAC634E4
:100E90000AE09B1BC3F1030303EB83039C4003683D
:100EA00044F440169C6BB4439C6303689C68E44321
:100EB000E4070ED09E6847F20104A643504CA342BB
:100EC0008C6904D1B4F5C04F01D14FF4804426435E
:100ED0009E604B7D012B08D18B69B3F5E04F08D0A4
:100EE000826A42F02002826201220B7D012B06D031
:100EF0000CE003685C6844F480645C60F5E74B7D5B
:100F0000A3B1826A42F02002826201220B680724A8
:100F100006680A2B10D3F7680A3B03EB43039C4097
:100F2000A7438C689C402743F7600EE003685C6829
:100F300044F480545C60E9E7376903EB43039C4069
:100F4000A7438C689C40274337610B68102B01D066
:100F5000112B04D103689C6844F400049C604B6826
:100F6000012B10D0022B16D0032B03681BD01C6A58
:100F7000CE686FF30B0434431C620B68102B19D03E
:100F8000112B17D037E003685C69CE686FF30B0450
:100F900034435C61F1E703689C69CE686FF30B042E
:100FA00034439C61E9E7DC69CE686FF30B0434439A
:100FB000DC61E2E7134C0368A34217D19C6824026A
:100FC00019D49C6844F400049C600968102912D16B
:100FD0000D490E4B0968B1FBF3F101EB81014900AA
:100FE00000E0491E00910029FBD104E0816A41F034
:100FF00020018162012280F824501046F8BD0000D3
:10100000003C0140002401405000002040420F00FD
:10101000F8B50024009490F824202546012A12D027
:10102000012280F824204A681F23072A0DD206686F
:10103000776B521E02EB820293409F430B689340F2
:101040001F43776319E00220F8BD06680D2A0AD213
:10105000376BD21F02EB820293409F430B68934091
:101060001F43376309E0F76A0D3A02EB82029340AF
:101070009F430B6893401F43F7620A680723066883
:101080000A2A0AD3F7680A3A02EB420293409F43C6
:101090008B6893401F43F76008E0376902EB420218
:1010A00093409F438B6893401F4337610A68102A1F
:1010B00001D0112A20D1124B02689A4217D19368AD
:1010C0001B0219D4936843F4000393600968102944
:1010D00012D10C490C4A0968B1FBF2F101EB810114
:1010E000490000E0491E00910029FBD104E0816A1B
:1010F00041F020018162012480F824502046F8BD8F
:10110000002401405000002040420F000068C06CE5
:10111000704700002DE9F04104004FF000057FD03A
:10112000A06A002628B9E66284F82460204600F010
:1011300081F82046FFF706FAA16AC90600D420B15B
:10114000A06A40F01000A0626AE0A16A21F4885110
:1011500041F00201A162334923688B42E16904D165
:10116000B1F5402F01D14FF40021277B4FF4807C53
:1011700041EA470261680A43A168614508D0012934
:1011800006D0002194F814E0BEF1010F02D00AE06D
:101190006146F7E7C7B1A76A47F02007A762E76A89
:1011A00047F00107E7625F6827F469470F435F6014
:1011B000236899681C4F394011439960A1686145C3
:1011C0000BD0012909D00CE0DFF860E0A7690EEB35
:1011D00047370F4347F40061E5E7218A0D05A5F580
:1011E00080152168CB6A23F470032B43CB622168FE
:1011F00089680F4B1940914208D1E662A16A21F03B
:10120000020141F00101A162BDE8F081A06A20F075
:10121000020040F01000A062E06A40F00100E062CD
:101220000120F1E7003C0140FDF7E1FF00E0FFFF96
:10123000FE0E1FFF30B585B0002100910191029193
:1012400003910068224A23490324234D904213D17D
:10125000886940F400708861886900F40070049027
:10126000886940F0040088618869009400F00400F7
:1012700069460194049025E0184A904225D1886976
:1012800040F480608861886900F480600490886917
:1012900040F010008861886900F0100004908869AF
:1012A00040F0040088618869694600F004000490F9
:1012B0000C20CDE900040A4800F0F4F91020CDE933
:1012C00000046946284600F0EDF905B030BD000085
:1012D00000240140001002400008014000280140A5
:1012E000001001402DE9F84300270D460446009701
:1012F00000F0E6FA804620688168C90508D5A06A32
:1013000040F02000A06284F824700120BDE8F8833A
:101310004168C90503D4C06A10F4700F2AD00220B6
:1013200001F036F83B490968B1FBF0F62068036923
:1013300039490B424FEA61014FEAA1121FD1C3683C
:101340004FEA611C13EA0C0F19D103690B4225D136
:10135000C068104222D1142023E0681C0AD02DB1AD
:1013600000F0AEFAA0EB0800A84203D9206800689C
:10137000800725D5206800688007EED52DE0036939
:101380000B4202D1C168114206D0026923490A42C8
:1013900006D1C068084203D1542002E0292000E0B1
:1013A000FC204643009816E0681C11D02DB100F0D7
:1013B00087FAA0EB0800A8420AD90098B04207D2E9
:1013C000A06A40F00400A06284F8247003209DE726
:1013D0000098401C0090B042E6D321686FF01200E4
:1013E0000860A06A40F40070A06220688068C0F3C2
:1013F000424007280CD1207B50B9A06A20F48070AD
:10140000A062A06AC00403D4A06A40F00100A062F8
:1014100000207BE7500000202449922449922400B8
:1014200070B5044690F8240001280DD0012084F8FE
:1014300024002046FFF7B2F802004FF0000005D06C
:1014400084F82400104670BD022070BDA16A40F2ED
:101450000123994341F48071A1621F4D23681F4904
:10146000AB4218D10E6816F4702F14D0A66A46F459
:101470008016A6620E68760505D5A66A26F4005683
:1014800046F48056A662A66AF6040AD5E66A26F0F5
:101490000606E66206E0A66A26F48016A6625E6884
:1014A000E9E7E06284F824006FF002001860206829
:1014B0008368C3F34243072B05D1A84208D10968CA
:1014C00011F4702F04D0816841F480118160B9E774
:1014D000816841F4A001F9E700280140042401409B
:1014E00010B5044690F82400012807D0012084F8A4
:1014F00024002046FFF726F810B107E0022010BDB7
:10150000A16A21F4885141F00101A162002184F80F
:10151000241010BD2DE9F047054626480F46012648
:10152000017E01290FD00121814601762868DFF86C
:1015300088804CF25034022808D0A2462046FFF79B
:10154000D9FBA8B131E00220BDE8F0872046FFF7C3
:10155000D1FB08BB0120FFF76DFB2046FFF7CAFB5C
:10156000D8F81010064621F00401C8F810101CE04D
:101570004FF0FF303860AC6811E02046FFF76CFB9D
:101580005046FFF7B7FBD8F81010060021F0020113
:10159000C8F8101001D03C6007E004F50064D5E9FC
:1015A000020100EBC120A042E7D8002189F8181001
:1015B0003046C9E7000300200020024003480169CB
:1015C00041F08001016100207047000000200240CE
:1015D0002DE9F05F07461C4888460024017E154629
:1015E0001E46012909D00121814601764CF2503A6C
:1015F0005046FFF77FFB18B122E00220BDE8F09FC4
:10160000012F02D0022F00D00427D346DFF83CA0E0
:10161000220128463146FEF790FE81B208EB4400D5
:10162000FFF72CFB5846FFF765FBDAF8102022F095
:101630000102CAF8102018B9641CE4B2BC42E7D316
:10164000002289F81820D9E700030020002002407A
:10165000064900200A69120607D5054A4A60054A6C
:101660004A600969090600D5012070470020024040
:1016700023016745AB89EFCD10B5044601F0A2FC0C
:101680002046BDE8104001F013BF0000044910B52A
:101690000A68024202D00860FFF7EEFF10BD0000AA
:1016A000140401402DE9F84FDFF8C8910024A9F196
:1016B000040B23460F2709F1040AABF1040ED1E015
:1016C0000125A54006EA0502AA4276D1DFF8A8C1A5
:1016D0004E68A6EB0C0866452BD00DDC032E34D0EB
:1016E00005DC36B3012E19D0022E2FD11BE0112EAE
:1016F00016D0122E2AD119E0B8F5881F19D006DCB1
:10170000B8F5803F15D0B8F5801F1FD111E0B8F5AE
:10171000001F0ED0B8F5041F18D10AE0CB6815E001
:10172000CB681B1D12E0CB6808330FE0CB680C338D
:101730000CE08B682BB1012B4FF0080303D04561FF
:1017400004E0042302E0056100E00023FF2A01D841
:10175000064601E000F104064FEA840501D9A5F12F
:101760002005D6F8008007FA05FC28EA0C0803FAE1
:1017700005F548EA0508C6F800804D68ED0070D50B
:101780003E4DAE6946F00106AE61AD6924F0030638
:1017900005F0010500953A4D06EB050CDCF8085004
:1017A000A607360F07FA06F825EA0805DFF8D48001
:1017B000404503D14FF0000825E052E0DFF8C88033
:1017C000404502D14FF001081DE0DFF8C0804045E0
:1017D00002D14FF0020816E0DFF8B480404502D194
:1017E0004FF003080FE0DFF8AC80404502D14FF026
:1017F000040808E0DFF8A080404502D14FF005085A
:1018000001E04FF0060808FA06F848EA0508CCF8A7
:1018100008804D68D9F80060ED024D4601D51643A9
:1018200000E096432E604D68DAF80060AD02554640
:1018300001D5164300E096432E604D68DBF800604A
:10184000AD035D4601D5164300E096432E604D681A
:10185000DEF80060ED03754601D5164300E09643BF
:101860002E60641C0A681646E2407FF429AFBDE88A
:10187000F88F000008040140000011100010024021
:101880000000014000080140000C01400010014030
:101890000014014000180140001C0140806808400D
:1018A00000D001207047C26821EA02030A4043EADF
:1018B0000241016170470AB1016170470904FBE709
:1018C0000148806870470000440000200248816899
:1018D000027811448160704744000020074810B529
:1018E000016841F010010160032000F09BF80F2017
:1018F00000F006F800F04AF8002010BD0020024079
:1019000030B505461C4887B0816941F400618161AA
:10191000806906A900F40060009001A800F0A0FE14
:1019200000F0BEFE1549164AB0FBF1F11548491EFC
:101930000260416040F2E7320021C0E9032181608A
:10194000816101F0DDF8040012D10E4801F006F9C2
:1019500004000DD1192000F037F8102D07D2002215
:101960002946192000F03EF80748056000E00124F0
:1019700007B0204630BD00000010024040420F007A
:10198000002C0140B8020020480000200C4808B597
:10199000816941F001018161816901F001010091DA
:1019A000C16941F08051C161C06900F08050009070
:1019B0000448416821F0E06141F00071416008BDD8
:1019C0000010024000000140002809DB00F01F0267
:1019D000012191404009800000F1E020C0F8001191
:1019E00070470000F0B40E4B1B680C46C3F3022393
:1019F000C3F10705042D00D90425191D072901D2BB
:101A0000002300E0DB1E012606FA05F1491E2140F5
:101A100099409E40761E16403143F0BC03F038BE1C
:101A20000CED00E0064900F0070208684FF6FF03DE
:101A3000184040EA0220034A104308607047000043
:101A40000CED00E00000FA0510B50C0607D501F01A
:101A5000070101EB810100EBC100103005E001EB53
:101A6000810100EBC10000F5A87099B232B10122EA
:101A700002730181190C4181002010BD0022027304
:101A8000C180F9E7704701EB810200EBC202D0F898
:101A9000D402526A02F047BD01EB810200EBC202A0
:101AA000D0F8D402D2F8642102F0A0BD70B504468B
:101AB0000B0601F0070000EB800104EBC1014FF0C1
:101AC00001024FF0000502D54A74103103E081F89D
:101AD000515101F5A871087094F89002012808D0BE
:101AE00084F89022206803F02BFA84F890520020AA
:101AF00070BD022070BD70B5044601F00F00227960
:101B0000904201D9012070BD0B0601F0070000EBE7
:101B1000800104EBC1014FF001024FF0000502D536
:101B20004A74103103E081F8515101F5A8718D70AC
:101B3000087094F89002012808D084F89022206858
:101B400003F09BFA84F89052002070BD022070BD13
:101B50002DE9F05F04685FEA424C0B788D69B4F8B8
:101B600050C04FF000064BF68F7948F2800A48F6D5
:101B70008F7B48F2C00E4FF480672AD54FF00208E1
:101B800008EBC308C44407EB4C07E45BC4F3090447
:101B9000A54203D32D1B8D6101D00BE08E61066839
:101BA00036F8235005EA090585F4005545EA0A058B
:101BB00026F82350520609D50D78036833F82520FE
:101BC00002EA0B0242EA0E0223F8252084B30A89B6
:101BD00029E04FF0060808EBC308C44407EB4C07A4
:101BE000E45BC4F30904A54203D32D1B8D6101D02E
:101BF0000BE08E61066836F8235005EA090585F486
:101C0000005545EA0A0526F82350520609D40B78F8
:101C1000056835F8232002EA0B0242EA0E0225F895
:101C200023202CB14A8949690068234603F0FEFC51
:101C30002046BDE8F09F2DE9F05F054600680C46A0
:101C40005FEA426C16468B692278B0F850C048F6BD
:101C50008F774CF280094FF4004B4FF6FF7E4FF424
:101C6000806A4FF0000172D54FF0020808EBC208FD
:101C7000E0440AEB480C30F80C00C0F30900834242
:101C800011D91B1AA3610FD0730407D52E6836F83B
:101C900022303B4043EA090326F8223094F82420FE
:101CA000012A47D052E1A161607810B1012813D018
:101CB0001AE02868B0F85030184400EB0210B0F871
:101CC0000424C2F30902A0F80424B0F8042442F466
:101CD0000042A0F8042407E02868B0F85030184407
:101CE00000EB0210A0F804146278286812B1012AEF
:101CF00011D018E0B0F850100844217800EB011022
:101D0000B0F80C14C1F30901A0F80C14B0F80C14CD
:101D100041F4004105E0B0F850201044227800EB77
:101D20000210A0F80C1421782846FFF7ACFE7004CE
:101D300072D40BE1626902446261E2690244E261C9
:101D40002369226A9A4203D31846111A04E03EE03E
:101D500084F824100AB110462162617811B101297A
:101D600029D031E02968B1F850201144227801EBE4
:101D70000211B1F80424C2F30902A1F8042401F20B
:101D800004413E2807D94209C30600D1521E0B88E0
:101D90004BEA822207E048B14208C30700D0521C38
:101DA0000B880EEA822213430B800DE00A8842F46E
:101DB00000420A8008E02968B1F8502011442278D6
:101DC00001EB0211A1F8040483B22289BAE04FF0BA
:101DD000060808EBC208E0440AEB480C30F80C0097
:101DE000C0F30900834211D31B1AA3610FD07304FF
:101DF00007D42E6836F822303B4043EA090326F820
:101E0000223094F82420012A51D09FE0A16160780B
:101E100018B1012814D01BE03FE02868B0F850301A
:101E2000184400EB0210B0F80424C2F30902A0F831
:101E30000424B0F8042442F40042A0F8042407E08B
:101E40002868B0F85030184400EB0210A0F80414D1
:101E50006278286812B1012A11D018E0B0F8501049
:101E60000844217800EB0110B0F80C14C1F309010B
:101E7000A0F80C14B0F80C1441F4004105E0B0F8DF
:101E800050201044227800EB0210A0F80C142178A6
:101E90002846FFF7F8FD700458D42278296831F8F5
:101EA0002200384040EA090021F822004EE0626931
:101EB00002446261E2690244E2612369226A9A4251
:101EC00003D31846111A216204E00AB110462162B8
:101ED00084F824106278296812B1012A28D02FE0F2
:101EE000B1F850201144227801EB0211B1F80C2412
:101EF000C2F30902A1F80C2401F20C413E2807D9D3
:101F00004209C30600D1521E0B884BEA822207E029
:101F100048B14208C30700D0521C0B880EEA822247
:101F200013430B800CE00A8842F400420A8007E069
:101F3000B1F850201144227801EB0211A1F80C04F1
:101F4000628983B26169286803F08EFB2278296870
:101F500031F8220048F6BF73184080F0300048F294
:101F60008003184321F822000020BDE8F09F01F013
:101F7000070101EB810100EBC100D0F86C01704753
:101F80002DE9F04104460F0601F0070000EB800147
:101F900004EBC1014FF001064FF0000502D54E746D
:101FA000103103E081F8515101F5A871022B08703E
:101FB0000A61CB7000D10D7194F89002012809D00C
:101FC00084F89062206802F021FE284684F890523E
:101FD000BDE8F0810220FBE710B501F0070404EB37
:101FE000840100EBC101C1E959230022C1F86C2131
:101FF00081F8512181F85041006801F5A87103F082
:1020000091F8002010BD70B504460D4601F00700A0
:102010002179884201D9012070BD29064FF00006C0
:102020004FF0010206D500EB800104EBC1014A74B8
:10203000103107E005EB850104EBC10181F8516126
:1020400001F5A8718A70087094F89002012807D0F1
:1020500084F89022206803F04CF8680702D006E06C
:10206000022070BD04F52671206803F004F884F89E
:102070009062002070BD10B501F0070404EB8401EC
:1020800000EBC101C1E90923012281F834200B636F
:102090000023CB624A7401F8104F006803F042F845
:1020A000002010BD1FB50446006803F0BBFA010410
:1020B00003D5204601F0E1FB1FBD41050DD5206889
:1020C00030F8441F21F480610180204600F000F9BF
:1020D0000021204600F017F91FBD410405D52068F6
:1020E00030F8441F21F4804174E0810405D5206854
:1020F00030F8441F21F400516CE0C10414D520686D
:1021000030F8401F21F004010180206830F8401FA2
:1021100021F008010180204600F0EDF8206830F839
:10212000441F21F4805155E0010540D5D4F800202A
:102130000020694632F8203021F81030401CC0B22F
:102140000828F7D332F8400F40F0010010802068D3
:1021500030F8402F22F0010202802068B0F84420BD
:102160005205FBD530F8442F22F480620280002013
:10217000236831F8102023F82020401CC0B2082822
:10218000F6D3206830F8401F41F008010180206834
:1021900030F8441F21F400610180206830F8401FAE
:1021A00041F004010180204600F0E0F81FBD8105E8
:1021B00009D5206830F8441F21F4007101802046C1
:1021C00000F09DF81FBDC005FCD5206830F8441F05
:1021D00021F4807101801FBD2DE9F041040004D07D
:1021E00094F89102002518B107E00120BDE8F081C4
:1021F00084F89052204600F04DF8032084F89102B4
:102200006571206802F030FF94E80F0002F096FE3E
:10221000022698BB0021206803F01EFA70BB002044
:1022200001270BE000EB800104EBC1014F7408743F
:10223000CD740D624D62401CC0B28D622179814225
:10224000F0D8002012E000BF00EB800104EBC101D8
:1022500081F8515181F8500181F85351C1F8605112
:10226000C1F86451401CC0B2C1F868512179814263
:10227000EAD894E80F0002F0EEFE10B184F8916203
:10228000B3E7657384F89172206802F0E2FE0020E3
:10229000ACE7000008B500680B49884212D10B4832
:1022A000C16941F40001C161C069002200F400006D
:1022B000009011461420FFF795FBBDE8084014205C
:1022C000FFF782BB08BD0000005C00400010024028
:1022D00070B5044680790125022801D0FEF7A7FCDD
:1022E0002946D4F8D40202F069FAD4F8D402BDE841
:1022F000704002F025BAD0F8D40202F049BAD0F802
:10230000D40202F04FBA10B5044690F890020128AA
:102310000AD0012084F890026173206803F09EF9CE
:10232000002084F8900210BD022010BDD0F8D42205
:1023300000F52671104602F04DBA10B5044690F82B
:102340009002012810D0012084F89002206803F048
:102350005AF901212046FFF795FB206802F077FE2D
:10236000002084F8900210BD022010BD10B5044674
:10237000D0F8D40202F06DFAA07A002804D0034805
:10238000016841F00601016010BD000010ED00E0A1
:1023900010B501460020284C04292FD00BDC012960
:1023A00030D0022929D100F07BF96168C1F3813175
:1023B000491C49001FE0082920D010291DD161685F
:1023C0002268D20119D51D48C1F38342C903805C3C
:1023D0000AD56168194AC1F34041921E515C184AFE
:1023E000B2FBF1F1484301E01649484361684902F4
:1023F00003D440000321B0FBF1F010BDBDE8104054
:1024000000F05EB9226AC2F30121012903D19207CB
:1024100001D5C80310BD022905D1626A920702D511
:1024200049F6404010BD0329FCD121688903F9D544
:102430004FF2244010BD000000100240685A00080E
:1024400000127A0000093D002DE9F84305460078A6
:10245000354CC00754D0E0690026C00008D4E069BC
:1024600040F08050E061E069012600F0805000906B
:102470002E480168C90512D40168804641F4807174
:102480000160FFF71DFA074605E000BFFFF718FAE5
:10249000C01B642823D8D8F80000C005F6D5206AF0
:1024A00010F4407021D0A98801F4407181421CD001
:1024B000206A1F49012220F440700A6000220A604D
:1024C0002062C00711D0FFF7FBF9074641F28838B8
:1024D00008E000BFFFF7F4F9C11B414502D9032012
:1024E000BDE8F883206A8007F4D5206A696820F483
:1024F0004070084320621EB1E06920F08050E06126
:102500002878800705D56068A96820F44040084312
:1025100060602878C00605D56068696920F480008D
:10252000084360600020DBE70010024000700040BC
:10253000400442422DE9F0470F46050061D0434E6A
:10254000306800F00700B84209D2306820F0070078
:1025500038433060306800F00700B84251D1286835
:102560003B4C810712D5400703D5606840F4E0601A
:1025700060602878000703D5606840F460506060B0
:102580006068A96820F0F000084360602878C00700
:1025900028D06868012810D02168022810D0890747
:1025A00000292EDA616821F0030101436160FFF721
:1025B00087F9804641F288390DE021688903EFE709
:1025C0008901EDE7FFF77CF9A0EB0801494502D945
:1025D0000320BDE8F0876068696800F00C00B0EB8C
:1025E000810FEFD1306800F00700B8420BD9306896
:1025F00020F0070038433060306800F00700B84230
:1026000001D00120E5E72878400705D56068E96832
:1026100020F4E060084360602878000706D5606811
:10262000296920F4605040EAC100606000F048F879
:102630006168084AC1F30311515CC840064908604B
:1026400006480068FFF75CF90020C2E7002002405E
:1026500000100240785A0008500000204800002076
:102660000F2202600C4A536803F00303436053686F
:1026700003F0F0038360536803F4E063C3605268BF
:102680004FF4E06303EAD20202610448006800F0FC
:102690000700086070470000001002400020024060
:1026A0000448054900684968044AC1F3C221515CE5
:1026B000C84070475000002000100240885A0008AF
:1026C0000E4A51680E4801F00C03042B11D0082B60
:1026D0000FD10C48C1F38343C903C05C0AD55168CC
:1026E000084AC1F34041921E515C054A5043B0FB79
:1026F000F1F0704704494843704700000010024061
:1027000000127A00565A000800093D002DE9F84FE2
:10271000040070D02078C04DC00749D06868C0F36D
:102720008100012807D06868C0F38100022809D120
:102730006868C00306D52868800339D5606800281A
:10274000E7D035E06068B0F5803F0BD010B1B0F550
:10275000A02F11D0286820F480302860286820F449
:10276000802002E0286840F480302860606890B1E2
:10277000FFF7A6F806460AE0286840F480202860A3
:10278000F0E700BFFFF79CF8801B642873D8286827
:102790008003F7D50CE0FFF793F8064605E000BF8D
:1027A000FFF78EF8801B6428F0D828688003F7D4E0
:1027B00020789A4E80074FF001094FF0000839D574
:1027C000686810F00C0F07D06868C0F38100022819
:1027D00009D16868C00306D42868800714D5206929
:1027E000012808D110E02069B0B1C6F80090FFF7C9
:1027F00067F8074605E00AE1FFF762F8C01B022808
:10280000C4D828688007F7D52868616920F0F800E7
:1028100040EAC10028600DE0C6F80080FFF750F8DC
:10282000074604E0FFF74CF8C01B022823D82868AD
:102830008007F7D4207800072CD57948A169D9B151
:10284000C0F80090FFF73CF8074604E0FFF738F8BF
:10285000C01B02280FD8686A8007F7D571484FF46B
:10286000FA510068B0FBF1F0009000BF0098411EE3
:102870000091FAD20EE080E0C0F80080FFF720F867
:10288000074604E0FFF71CF8C01B022875D8686AE9
:102890008007F7D42078400760D5E8690027C0009A
:1028A00008D4E86940F08050E861E869012700F049
:1028B000805000905C480168C90513D401688346C4
:1028C00041F480710160FEF7FBFF824606E000BF25
:1028D000FEF7F6FFA0EB0A0064284ED8DBF80000F4
:1028E000C005F5D5E06801280AD008B1052813D045
:1028F000286A20F001002862286A20F0040002E023
:10290000286A40F001002862E06841F2883B98B1F3
:10291000FEF7D6FF82460BE0286A40F004002862EA
:10292000EEE700BFFEF7CCFFA0EB0A0159455AD8ED
:10293000286A8007F6D50CE0FEF7C2FF824605E064
:10294000FEF7BEFFA0EB0A0159454CD8286A800764
:10295000F6D41FB1E86920F08050E861E06988B3DF
:102960006968C1F38101022944D00228C6F8608059
:1029700004D0FEF7A5FF044638E034E0FEF7A0FFE0
:10298000074604E0FEF79CFFC01B02282BD82868EE
:102990008001F7D4206AB0F5803F05D16868A1684E
:1029A00020F4003008436860D4E9080108436968EE
:1029B00021F4741108436860C6F86090FEF780FF48
:1029C000044606E025E000BFFEF77AFF001B022860
:1029D00009D828688001F7D51BE000BFFEF770FF1B
:1029E000001B022802D90320BDE8F88F2868800167
:1029F000F4D40EE00128F7D06868226A00F4803130
:102A0000914204D1616A00F47010884201D0012023
:102A1000EAE70020E8E70000001002400000424220
:102A20008004424250000020007000407047704710
:102A300010B590F83C20012A22D0012280F83C20D9
:102A4000CA688C6822F4407222434C6822F4806287
:102A500022430C6822F4006222430C6922F4805263
:102A600022434C6922F400522243C969002322F414
:102A700080420A4301684A6480F83C30002010BD5F
:102A8000022010BD70B590F83C20012A2CD0012402
:102A900080F83C40022280F83D2003685A689D6817
:102AA00022F070060A6832435A60104B02689A425C
:102AB0000ED00F4B9A420BD0B2F1804F08D00D4B85
:102AC0009A4205D00C4B9A4202D00C4B9A4204D148
:102AD000496825F080031943916080F83D4000214A
:102AE00080F83C10084670BD022070BD002C0140EB
:102AF000003401400004004000080040000C004089
:102B000010B5040003D094F83D0010B107E0012097
:102B100010BD002084F83C00204600F01EF8022082
:102B200084F83D00211D206801F0E0F8012084F8C0
:102B3000460084F83E0084F83F0084F8400084F8A2
:102B4000410084F8420084F8430084F8440084F88B
:102B5000450084F83D00002010BD704790F83D10FE
:102B6000012901D001207047022180F83D10016841
:102B7000CA6842F00102CA6000680E4988420ED05D
:102B80000D4988420BD0B0F1804F08D00B498842E4
:102B900005D00B49884202D00A49884204D1816895
:102BA00001F00701062903D0016841F0010101602D
:102BB00000207047002C0140003401400004004018
:102BC00000080040000C004070472DE9F041044629
:102BD0000068C66805694FF00007A90713D5B1075B
:102BE00011D5F91E016101202077206880698007D6
:102BF000204602D0FFF7E8FF04E000F0A5F82046E9
:102C000000F04AF92777680716D5700714D52168B0
:102C10006FF004000861022020772068806910F4BA
:102C2000407F204602D0FFF7CFFF04E000F08CF891
:102C3000204600F031F92777280715D5300713D53E
:102C400021686FF008000861042020772068C069BF
:102C50008007204602D0FFF7B7FF04E000F074F8C9
:102C6000204600F019F92777E80616D5F00614D5A6
:102C700021686FF010000861082020772068C06983
:102C800010F4407F204602D0FFF79EFF04E000F0E2
:102C90005BF8204600F000F92777E80708D0F00736
:102CA00006D021686FF001000861204600F050F95D
:102CB000280608D5300606D521686FF08000086127
:102CC0002046FFF7B3FE680608D5700606D52168D2
:102CD0006FF040000861204600F044F9A8060AD5CC
:102CE000B00608D521686FF0200008612046BDE8D5
:102CF000F041FFF79CBEBDE8F081000000B585B053
:102D00000021009101910291039100680B498842D2
:102D100012D10B48816941F01001816180696946D7
:102D200000F0100004904FF47070009002200190A9
:102D300003900448FEF7B6FC05B000BD0034014026
:102D40000010024000100140704770B5044690F832
:102D50003C0000260D4601280FD0012084F83C00DD
:102D60006AB1042A1DD0082A2FD00C2A3FD0012690
:102D7000002084F83C00304670BD022070BD206801
:102D800001F010F82068816941F008018161206834
:102D9000816921F004018161206881692A691143F8
:102DA00011E0206801F02EF82068816941F400618B
:102DB00081612068816921F4806181612068816975
:102DC0002A6941EA02218161D2E7206801F050F8C6
:102DD0002068C16941F00801C1612068C16921F022
:102DE0000401C1612068C1692A69114311E02068AA
:102DF00001F072F82068C16941F40061C161206886
:102E0000C16921F48061C1612068C1692A6941EA10
:102E10000221C161ACE710B5040003D094F83D0075
:102E200010B107E0012010BD002084F83C002046CE
:102E300000F01EF8022084F83D00211D206800F0FB
:102E400055FF012084F8460084F83E0084F83F00D6
:102E500084F8400084F8410084F8420084F843007C
:102E600084F8440084F8450084F83D00002010BD3B
:102E700008B500680649884208D10648816941F4CE
:102E800000518161806900F40050009008BD00008D
:102E900000340140001002407047000010B50446A5
:102EA000022249B104290ED0082913D094F8410018
:102EB000012816D0012010BD94F83E000128F9D158
:102EC00084F83E200FE094F83F000128F2D184F806
:102ED0003F2008E094F840000128EBD184F840201E
:102EE00001E084F841200122206800F04DFF1349E1
:102EF0002068134A884201D0904203D1436C43F4C6
:102F000000434364206888420DD090420BD0B0F15A
:102F1000804F08D00B49884205D00B49884202D027
:102F20000A49884204D1816801F00701062903D0CB
:102F3000016841F001010160002010BD002C01403A
:102F4000003401400004004000080040000C004034
:102F500000680349884201D1FEF7B8BC7047000001
:102F6000002C0140704700002DE9F047060020D0FA
:102F70000024124FDFF848A0A14600BF07EB04155C
:102F800028686968401A29686960A4B14AF6E03186
:102F9000A1FB06284FEAE17C0CFB068C01FB09C370
:102FA00080FB0A01FDF7DCF9E860641CE4B2022C46
:102FB000E4D3BDE8F0874FF2A001E9E73003002039
:102FC00080EE36002DE9F0414FF400614F10144DB2
:102FD0000446884201D0BC420CD12846FEF75EFC74
:102FE000064639462846FEF759FC0246314600207F
:102FF00002F014FD802C01D0402C0FD180212846F6
:10300000FEF74CFC044640212846FEF747FC2146CB
:10301000BDE8F0410246012002F000BDBDE8F081AC
:10302000000C014010B5022801D3002010BDA8B14A
:103030004AF6E0320B4901EB0010006890FBF2F118
:1030400002FB1100002800DA104448F6A04180FB82
:1030500001010023FDF7FAF880B210BD4FF2A00283
:10306000E8E7000030030020022801D30020704769
:10307000024901EB00100068704700003003002097
:10308000022801D300207047024901EB0010C068FC
:1030900070470000300300200020074B014600BFAE
:1030A00003EB0012116051601172D160401CC0B27C
:1030B0000228F5D37047000030030020022807D211
:1030C000044A002102EB001001604160C1600172FE
:1030D0007047000030030020FEE70000F0B5002339
:1030E0000A24302537261F4611E000BFB4EB107FBD
:1030F00002D905EB107C01E006EB107C01F813C04F
:1031000001EB430C00015B1C8CF80170DBB29342B5
:10311000ECD3F0BDF0B587B01C216846FDF7AEF9E1
:103120001E481D49002401608915816004730475DF
:10313000012505614FF460214460C161FDF7EAFF9C
:1031400008B172B6FEE70326022704968DE8B000A8
:103150008DF8154006948DF8144069460F48039485
:10316000FDF75EFE08B172B6FEE7CDE9005769468D
:103170000A48FDF755FE08B172B6FEE7CDE90046F4
:10318000694606480294FDF74BFE002801D072B64E
:10319000FEE707B0F0BD000000240140100200204F
:1031A00070B588B01C216846FDF768F91F481E49B4
:1031B000002401608915816004730475012505618F
:1031C0004FF460214460C161FDF7A4FF08B172B6FD
:1031D000FEE70C20CDE90005032502268DF81540F9
:1031E0000296049506948DF8144069460F4803949E
:1031F000FDF716FE08B172B6FEE70D20CDE9000618
:1032000069460A48FDF70CFE08B172B6FEE70420D5
:10321000CDE9000569460548FDF702FE002801D00A
:1032200072B6FEE708B070BD0028014040020020E1
:10323000F0B585B000242F480094019402940394C3
:10324000816941F020018161816901F020010491CF
:10325000816941F010018161816901F010010491DF
:10326000816941F004018161816901F004010491E7
:10327000816941F00801816180691F4E00F00800FA
:103280004FF4E0650490002229463046FEF713FB18
:103290004FF44C6000901948CDE90104184F69467D
:1032A0003846FEF7FFF901200095CDE90104022020
:1032B000039069463046FEF7F5F94FF440700090F0
:1032C0001048CDE9010469463846FEF7EBF90022C3
:1032D00001211720FEF786FB1720FEF775FB002261
:1032E00001212820FEF77EFB2820FEF76DFB05B0AC
:1032F000F0BD000000100240000801400000311045
:10330000000C01400000111010B592B000240F9481
:103310001C2168461094FDF7B1F8202107A8FDF79D
:10332000ADF82C482A49C0E9001440F67F41C0E9B5
:103330000241046144618461FFF76DFD08B172B61A
:10334000FEE70F940FA923481094FFF79BFB08B1E9
:1033500072B6FEE76020CDE9000402940394049461
:103360000594002269461B480694FFF7EEFC08B15D
:1033700072B6FEE7042269461648FFF7E6FC08B17C
:1033800072B6FEE7082269461248FFF7DEFC08B174
:1033900072B6FEE70C2269460E48FFF7D6FC08B16C
:1033A00072B6FEE70794089409944FF400500A940B
:1033B000CDE90B4007A907480E94FFF739FB08B188
:1033C00072B6FEE70348FFF799FC12B010BD00008B
:1033D000003401407002002010B500220F4910484F
:1033E00001F07AF808B1FDF722FC0E490C4801F013
:1033F00056FA08B1FDF71BFC0B49094800F078FEAE
:1034000008B1FDF714FC064801F09EFA002803D02D
:10341000BDE81040FDF70BBC10BD00009C00002073
:1034200010040020D8010020EC000020FEE700007E
:1034300001480078704700006000002001480069E2
:1034400070470000780000200148007870470000B5
:103450007800002001484069704700007800002093
:1034600010B50020FFF700FE48F6A04180FB0101E7
:103470004FF2A0020023FCF773FF10BD0148407813
:10348000704700006000002070B5084C0120002546
:1034900020706560A560E560FFF7E6FD02F045F984
:1034A0002061681EC4E9050570BD00007800002099
:1034B00070B500250126184CB0F5007F07D0B0F597
:1034C000807F27D1E078B8B1607990B114E0E078DE
:1034D00020B1607910B9A07802281BD0207840F084
:1034E0000100207066700DE00020FFF7E7FDE67137
:1034F0000BE0A07801280DD0207840F00200207069
:1035000002206070E0790028EED0002000F0A4F9DD
:10351000E570657170BD00006000002010B5074CBB
:103520002178022908D002F000F960610020A06132
:1035300004202070012010BD002010BD7800002064
:1035400008B50020ADF8000069460120FDF7F0FA4B
:1035500028B9BDF80000012804D0022802D000F0EC
:1035600061FB08BD0149487008BD000060000020F3
:1035700010B50446012801D0022C1FD11048417813
:103580008C4202D1C178002918D084700121C17009
:10359000002101700171012C0CD004210120FDF7E4
:1035A00015FB012C08D040F23F61BDE8104000201F
:1035B00000F02AB90321F1E70249F6E710BD000047
:1035C00060000020C1F9FFFF70B5354C207900255F
:1035D000A8B1E07808B9607988B1FEF771F9A06800
:1035E000002000F039F9E5706571257160780028D8
:1035F00035D06178BDE870400120FDF7E7BAE07989
:10360000D8B1E07808B96079B8B10020FFF72CFD97
:1036100043F6AC71884203DDA078012807D00CE0A6
:1036200043F6AC71C84208DAA078022805D1002020
:1036300000F012F9E57065712571607900280ED0EF
:10364000207900280BD1FEF73BF9E16844F62062AF
:10365000411A914204D3002000F0FEF8657170BD5C
:1036600021696269411A9142F9D3A1794942A17154
:10367000616901F548716161626940F6B8318A4259
:1036800000D96161206194F90600002802DD40F252
:103690003F6100E00349BDE87040002000F0B4B88D
:1036A00060000020C1F9FFFF0548022101700021E0
:1036B0008160C16040F67F41012000F0A5B80000A4
:1036C000780000202DE9F041364C0026616801B1F8
:1036D000461A6060207803254FF49677022828D197
:1036E0000120FFF7CDFCA1680EB13144A16042F288
:1036F0001072914206D3012000F0AEF80520207030
:10370000BDE8F081B94214D3801C4FF000080428B2
:103710000DD8E0683044E060B8420AD3012000F0E0
:103720009BF80120FFF7CAFCC4F8108013E0C4F82E
:103730000C80207804282DD10120FFF795FC01F0A2
:10374000F4FF20616169081A00F11401282904D8E6
:10375000012000F081F82570D2E7C0004542681EC4
:103760004FF49571884201D83D460FE005F22B10C9
:10377000884201D80C4D09E0B5F5486F02DB40F6F0
:103780007F4503E015F5486F00DC084D012029B2A4
:1037900000F03AF80120FFF767FC01F0C6FF206156
:1037A000AEE7000078000020D4FEFFFF81F3FFFFAA
:1037B00010B5134C012291022046FEF77CF801223D
:1037C00051022046FEF777F800210E48FFF766FB0E
:1037D00004210C48FFF762FB08210A48FFF75EFB53
:1037E0000C210848FFF75AFB064900200A6850637D
:1037F0000A6890630A68D0630968086410BD000015
:103800000008014070020020002310B51A46B1F5EF
:10381000486F02DB40F67F4106E011F5486F01DC9E
:103820000B4904E0002901DD8BB203E002DAC1F1AB
:1038300000018AB207490C6828B1012802D16363EC
:103840000868826310BDE3630868026410BD00006D
:1038500081F3FFFF70020020064A0021136828B19F
:10386000012802D15963106881637047D9631068D9
:103870000164704770020020FEE72DE9F84F04460E
:1038800040F68F7B48F60F794FF480684FF0000ABE
:10389000BDE1B0F8441011F00F0539D030F82560C3
:1038A00031047ED530F8251001EA0B0141F080018A
:1038B00020F8251005EB850004EBC00797F85C01A4
:1038C00007F5A87700286DD0F87802286BD03978F2
:1038D000226832F8210048F68F73184048F2C0037E
:1038E000184322F821003978206830F82120B0F8F8
:1038F000503052047DD5022202EBC1015A1808EB68
:103900004201415A8905890D009173D03A89DDE061
:10391000C9062BD4018801EA090141F40041018064
:10392000206804F11005B0F85030217C022202EB2F
:10393000C1015A1808EB4201405AC0F30900E06285
:10394000616A0844606200212046FEF79CF8607BB3
:1039500000289DD0A86900289AD1607B216840F09A
:103960008000A1F84C0084F80DA050E1018804F516
:10397000A8750A0521D5B0F850202B78062101EB57
:10398000C3010A4408EB4201405A04F52671C0F312
:103990000903EB61EA88206801F048FE206801888D
:1039A00002E0AEE06EE07EE001EA0B0141F0800152
:1039B00001802046FEF7BAFC29E10904D5D501882B
:1039C00001EA0B0141F0800101802068B0F850202D
:1039D0002B78062101EBC3010A4408EB4201405A4F
:1039E00083059B0DEB6110D0696971B1EA8820688D
:1039F00001E05FE05DE001F019FEE96968690844F3
:103A0000686100212046FEF747F821680888020512
:103A1000ABD4C0F301300328A7D0B1F8500008445C
:103A2000B0F80C14C1F30901A0F80C142A6900F2D3
:103A30000C403E2A09D95109D20600D1491E0288FC
:103A40004FF4004343EA812109E0B2B15108D207A3
:103A500000D0491C02884FF6FF7303EA81210A4314
:103A60000280216808884BF68F72104080F4405025
:103A700048F2800210430880C9E0018841F4004107
:103A80000180EEE72068B0F850203B78062101EB7A
:103A9000C3010A4408EB4201415A8905890D00918E
:103AA00018D0FA8812E0324639462046FEF750F820
:103AB00000900FE0062202EBC1015A1808EB420108
:103AC000415A8905890D009104D07A897969009B52
:103AD00001F0ACFDF86900990844F8617969009833
:103AE00008447861B86918B139690098814204D9ED
:103AF00039782046FDF7D0FF03E03946206801F011
:103B000011FB30062ED505EB850004EBC0012068C3
:103B100030F8252002EA090242F4004220F825206C
:103B2000C87C103101281ED0F0056CD42068B0F894
:103B300050300D78022202EBC5021A4408EB420213
:103B4000805A8A69C0F30900824255D9121A8A61E3
:103B500054D04A6902444A61CA691044C861206865
:103B600001F0E0FA53E0C1F818A0087B524608B310
:103B7000700620D5487810B1012812D03AE02068AC
:103B8000B0F8502010440A7800EB0210B0F804247A
:103B9000C2F30902A0F80424B0F8042442F400425D
:103BA00006E02068B0F8503018440B7800EB0310A2
:103BB000A0F804241EE04B78206813B1012B11D02B
:103BC00018E0B0F8502010440A7800EB0210B0F86A
:103BD0000C24C2F30902A0F80C24B0F80C2442F41F
:103BE000004205E0B0F8503018440B7800EB0310A9
:103BF000A0F80C24097802E0C1F818A0E9B2204628
:103C0000FDF741FF03E032462046FEF714F8206836
:103C1000B0F8441009043FF53CAE0020BDE8F88F31
:103C20007047704710B50C4C012161710020E070A5
:103C3000207120706070A1714FF448706061FDF7D1
:103C40003FFEE060E0682061BDE8104040F23F6167
:103C50000020FFF7D9BD000060000020704730B59C
:103C600095B028216846FCF709FC14210AA8FCF746
:103C700005FC18210FA8FCF701FC01210804CDE97F
:103C800000100024029402250491CDE907504FF45E
:103C9000E01009906846FEF739FD08B172B6FEE7FC
:103CA0000F20CDE90A054FF48060CDE90C400221D8
:103CB0000AA80E94FEF73EFC08B172B6FEE7122089
:103CC0000F904FF40040119014940FA8FEF7BCFB26
:103CD000002801D072B6FEE715B030BD7047000075
:103CE0000148FEF772BF0000B8020020F0B502687C
:103CF000204C214D214E224F224B4FF0804CA042B0
:103D000009D0984207D0604505D0A84203D0B04200
:103D100001D0B84204D122F0700E4A6842EA0E0285
:103D2000A04209D0984207D0604505D0A84203D0F0
:103D3000B04201D0B84203D122F44075CA682A4388
:103D40004D6922F080022A4302608A68C2620A68D2
:103D50008262A04201D0984201D109690163012128
:103D600041610169C90703D0016921F001010161C5
:103D7000F0BD0000002C014000040040000800409D
:103D8000000C00400034014010B501F01F03012178
:103D9000046A99408C430462016A9A4011430162AB
:103DA00010BD0000F0B5036A026A22F0010202624F
:103DB00042688469124E24F073050C682C4323F08A
:103DC00002058B682B430D4DA84201D0B04205D1AE
:103DD00023F00807CB683B4323F00403A84201D03B
:103DE000B04205D14D6922F4407215438A692A43D5
:103DF00042608461496841630362F0BD002C014068
:103E000000340140F0B5026A036A23F01003036234
:103E1000436884690D6824F4E64444EA05248D6807
:103E200022F0200242EA05120F4D104EA84201D0A6
:103E3000B04206D1CF6822F0800242EA071222F097
:103E40004002A84201D0B04207D14D6923F440633B
:103E500043EA85038D6943EA8503436084614968C9
:103E600081630262F0BD0000002C0140003401407B
:103E7000F0B5026A036A23F4807303624368C4697D
:103E800022F4007224F073050C68124E2C438D68E6
:103E900042EA05220E4DA84201D0B04206D1CF68B9
:103EA00022F4006242EA072222F48062A84201D092
:103EB000B04207D14D6923F4405343EA05138D699D
:103EC00043EA05134360C4614968C1630262F0BDFF
:103ED000002C01400034014030B5046A026A22F42B
:103EE000805202624268C3690D6823F4E64343EAE4
:103EF00005238D6824F4005444EA0534084DA84293
:103F000002D0084DA84204D14D6922F4804242EA11
:103F100085124260C36149680164046230BD0000DB
:103F2000002C0140003401402DE9F041D0F8C032AE
:103F3000D0F8B822CAB101EB810500EB8504002658
:103F4000E7693FB103EBC5031B6AB7FBF3F503FB5E
:103F5000157323B1C2F814620020BDE8F08100237C
:103F60001A46E66100F07EFCF6E70220F5E770B540
:103F70000546D0F8B84200F07AFBC4F80C02D5F838
:103F8000B80248B1D5F8BC12D4F80402CA6804F5E6
:103F900003719047002070BD022070BD70B50446CB
:103FA0000026812100F0B6FA002501212046E562B5
:103FB00000F0B0FA82212046C4F86C5100F0AAFA51
:103FC0002564D4F8B80248B1D4F8BC0204F52E74C4
:103FD00040688047206800F014FE2560304670BDC0
:103FE00010B5D0E9AE4159B194F80002FF2807D0CE
:103FF0008B6894F8012221469847FF2084F800023C
:10400000002010BD0A2101800048704700010020F7
:104010004321018000487047500100204321018066
:10402000004870470C010020432101800048704780
:10403000940100202DE9F04104460026007C4FF455
:104040000077012590B3402302228121204600F011
:1040500062FB4023E56202220121204600F05BFB67
:104060000823032282212046C4F86C5100F053FB40
:104070004FF40770256400F0C5FDC4F8B802F8B12C
:104080000546D4F8BC02006880470020C5F8140239
:10409000C5F81802207CD5F8042298B140230121EC
:1040A000204600F044FB3046BDE8F081FFE73B4688
:1040B00002228121204600F02EFB3B46E562CAE742
:1040C0000126F0E73B46EAE710B5D0F8B81269B12F
:1040D000027C002AD1F8042205D04023012100F0FF
:1040E00026FB002010BD4FF40073F7E7022010BD3F
:1040F00002460220002902D00020C2F8BC127047FC
:10410000D0F8B802C0F8041200207047D0F8B80206
:10411000C0F81022C0F80812002070472DE9FC41B9
:104120000546D0F8B87200208DF80000ADF8040004
:10413000064608780C4610F0600121D020293BD1BA
:10414000E288AAB10006607807D5D5F8BC128B6862
:1041500039469847E288394626E087F80002A07978
:1041600087F80102E2883946284600F06AF828E01C
:10417000D5F8BC12607800228B682146984720E071
:10418000607820B10A2809D00B2815D110E095F8E5
:104190009C02032810D1022201A905E095F89C0297
:1041A000032809D101226946284600F064F808E096
:1041B00095F89C02032804D02146284600F036F8E2
:1041C00002263046BDE8FC8110B5D0F8B812A1B186
:1041D000D1F814220AB1012010BD0122C1F8142225
:1041E000D1F810220263B1F8102293B2D1F808225C
:1041F000812100F037FB002010BD022010BD10B55A
:10420000D0F8B42252689047002010BD134610B574
:104210000A46002100F08BFA002010BD134610B5AD
:104220000A46002100F01EFB002010BD10B5044618
:10423000802100F0FCFA2046BDE81040002100F08B
:10424000F6BA10B50323C0F85C21C0F89432C0F868
:10425000602113460A46002100F069FA002010BDD3
:1042600010B505210023C0F894121A46194600F033
:104270005EFA002010BD10B50223C261C0F894326E
:10428000026213460A46002100F0ECFA002010BD3D
:1042900010B504210023C0F894121A46194600F004
:1042A000E1FA002010BD000010B50A46024903A043
:1042B00000F0E2F8004810BDD4060020434443203B
:1042C000436F6E66696700001220088000487047DF
:1042D000BC00002010B50A46024903A000F0CCF84B
:1042E000004810BDD406002043444320496E746545
:1042F0007266616365000000042008800048704712
:10430000B800002010B50A46024903A000F0B4F836
:10431000004810BDD406002053544D6963726F6588
:104320006C656374726F6E696373000010B50A4642
:10433000024903A000F0A0F8004810BDD4060020F8
:1043400053544D3332205669727475616C20436F3B
:104350006D506F727400000010B51A2008800A4872
:104360000168001D0468001D0068081809D00822B3
:104370000649FEF7B3FE0549042210312046FEF738
:10438000ADFE0248801E10BDE8F7FF1FD2000020DE
:10439000F8B504460020ADF8000048880D46010A33
:1043A000082948D2DFE801F04704091747473C4590
:1043B000D4F8B012207C0A6819E0207C022600287C
:1043C000D4F8B40205D0C16A6846884701464670F1
:1043D0003EE0816AF8E7C0B206282CD2DFE800F0A0
:1043E000030A1014181CD4F8B002426805E06946AC
:1043F00090471CE0D4F8B0028268E2B1207CF6E776
:10440000D4F8B002C268F8E7D4F8B0020269F4E761
:10441000D4F8B0024269F0E7D4F8B0028269ECE760
:10442000207C40B9D4F8B402416B68468847014605
:104430000EE0207C20B129462046FFF7F7FEF8BDAC
:10444000D4F8B402016B68468847014607204870DB
:10445000BDF8000048B1EA8852B1824200D9024654
:10446000ADF800202046FFF706FFE8880028E6D1D7
:104470002046FFF70DFFF8BD70B5002300281ED0C1
:104480000446002502E06D1CEDB2641C2678002E67
:10449000F9D1022404EB450414801278CA545B1C41
:1044A0000322CA5400245B1C06E0CA545B1CDAB227
:1044B0008C54521CD3B2401C0278002AF5D170BD36
:1044C00001004FF0000004D0012901D0022901D0E1
:1044D000022070470120704710B580B1D0F8B43287
:1044E00013B10023C0F8B43209B1C0F8B0120121F1
:1044F00080F89C12027000F0BFF8002010BD02206E
:1045000010BD10B5D0F8C002FDF7F5FABDE81040B7
:10451000FFF7D6BF10B5D0F8C002FDF7C7FABDE867
:104520001040FFF7CDBF2DE9F0411746044651B1C9
:10453000D4F8B40242691AB194F89C02032851D00D
:104540000220BDE8F081D4F89432002504F1140073
:10455000022B03D0042B3AD0C3B33CE0D0E9036371
:104560009E4207D9F11AC1608AB239462046FFF748
:1045700055FE12E08068B0FBF3F103FB110199B91D
:10458000984211D3D4F8981288420DD200221146D5
:104590002046FFF743FEC4F8985200231A461946F6
:1045A000204600F0C4F816E0D4F8B402C16829B17E
:1045B00094F89C02032801D1204688478021204698
:1045C00000F035F92046FFF74BFE04E0FFE78021BD
:1045D000204600F02CF994F8A002012804D184F8B8
:1045E000A05201E0204690470020AAE770B515468A
:1045F000044649B1D4F8B40282691AB194F89C0215
:10460000032830D0022070BDD4F8941204F5AA70AB
:10461000032902D005291ED027E0D0E903218A42D0
:104620000BD9531AC3600846834200D303469AB29B
:1046300029462046FFF7EAFD17E0D4F8B4020169E5
:1046400029B194F89C02032801D1204688472046CE
:10465000FFF71EFE09E000200146C4F89402204640
:1046600000F0E5F801E020469047002070BDD0F84A
:10467000C002FDF77CBC000010B504461C481D4973
:10468000C0F8D442C4F8C0020160082101710221BF
:10469000817100218172C1720173FDF79DFD08B126
:1046A000FCF7C5FA0022D4F8C0021823114604F51D
:1046B0003074FDF7C9F95823002280212068FDF7E6
:1046C000C3F9C023002281212068FDF7BDF94FF412
:1046D0008873002201212068FDF7B6F94FF480733A
:1046E000002282212068FDF7AFF9002010BD0000F4
:1046F000F4120020005C00400A0601F07F01D0F8AF
:10470000C00201EB810100EBC10001D5807C704744
:1047100090F85201704710B51C461346D0F8C002FD
:104720002246FDF72DFCBDE81040FFF7C9BE10B5CD
:10473000D0F8C002FDF750FCBDE81040FFF7C0BE46
:1047400070B50022044640231146FFF7E4FF4026DF
:104750000125C4F864613346002280212046C4F854
:104760005851FFF7D8FF6662A56184F89C5200207B
:10477000C4F894026060C4F8A402D4F8B80228B166
:10478000D4F8B4020021426820469047002070BD52
:1047900090F89C12042903D190F89D1280F89C1285
:1047A0000020704710B590F89C12032904D1D0F86E
:1047B000B412C96901B18847002010BD01740020FE
:1047C000704710B5D0F8C002FDF79DFDBDE8104060
:1047D000FFF776BE70B5044600F52A70054600F076
:1047E0004AF80120C4F89402B4F8AE02C4F8980262
:1047F00094F8A80210F01F010AD001290DD0022957
:1048000010D000F08001204600F011F8002070BDAB
:104810002946204600F09DF8F8E72946204600F09A
:10482000C9F9F3E72946204600F01CF9EEE710B578
:10483000D0F8C002FDF7E7FBBDE81040FFF740BE2F
:1048400010B5D0F8C002FDF778FDBDE81040FFF7C5
:1048500037BE90F89C1280F89D12042180F89C12BB
:104860000020704710B5D0F8C002FDF704FCBDE889
:104870001040FFF725BE0A7802704A7842708A78A5
:10488000CB7802EB032242800A794B7902EB0322B8
:1048900082808A79C97902EB0121C1807047024682
:1048A000002011B1C2F8B41270470220704710B551
:1048B000D0F8B42202241AB11268904700B900243B
:1048C000204610BD70B50E461E4D897804462970ED
:1048D000012931D894F89C0202280BD003280FD06C
:1048E00031462046FFF7A2FC29782046BDE87040FB
:1048F000FFF785BCD9B10320616084F89C0209E010
:1049000071B16068884212D0C1B22046FFF777FCCF
:10491000297861602046FFF7CAFF02280CD006E024
:10492000022084F89C0220466160FFF768FC204664
:10493000BDE87040FFF7ACBC31462046BDE8704092
:10494000FFF774BCFC00002010B5FFF779FF0020D2
:1049500010BD2DE9F0410A78002612F0600208D05F
:10496000202A01D0402A70D1D0F8B4229268904712
:104970006DE04B78002201250A2B66D2DFE803F0B8
:10498000405D6557650805652C29FFF701FD5EE070
:1049900004468888D8B9C888C8B94888802816D2FB
:1049A00000F07F0794F89C02032810D084F89E72D0
:1049B00039462046FFF705FF2046FFF769FC1FB187
:1049C000022084F89C0242E084F89C523FE020469A
:1049D0003BE0FFF777FF3AE0CB88012B35D190F829
:1049E0009C32012B04D0022B02D0032B2DD104E0EA
:1049F0008260012200F1080116E00122011D13E08E
:104A000090F89C22012A03D0022A01D0032A1CD14B
:104A1000CA88022A19D1C560D0F8A41209B10321AD
:104A2000C160022200F10C01FFF725FC0FE049886C
:104A300001290CD1C0F8A45211E090F89C32012B4E
:104A400008D0022B06D0032B04D0FFF7EFFB304633
:104A5000BDE8F08149880129F9D1C0F8A422FFF707
:104A600017FCF4E72DE9F0410A46044610780027C8
:104A7000097910F060030AD0202B01D0402B50D1CF
:104A8000D4F8B40211468368204698478FE0C0F3FB
:104A90004110012806D05078D0B301282AD003282D
:104AA0003FD107E0D4F8B402114683682046BDE840
:104AB000F041184794F89C02022802D0032872D1D2
:104AC0000AE071B380296ED02046FFF7B0FE802146
:104AD0002046FFF7ACFE6AE0508838B931B1802932
:104AE00004D0D08810B92046FFF7A1FE2046FFF77A
:104AF000CFFB5CE094F89C020228E2D0032852D15C
:104B0000508898BB4806F1D02046FFF7FAFCEDE745
:104B1000FFE794F89C020026022803D0032842D124
:104B200012E040E009B180293DD1080601F07F0084
:104B300000EB800004EB800101D5143101E001F5A8
:104B4000AA7102220E602AE0080601F00F0000EBB5
:104B5000800004EB80000AD5806920B301F07F005B
:104B600000EB800004EB800514350BE01FE0D0F86B
:104B70005801C0B101F07F0000EB800004EB80051C
:104B800005F5AA7541B1802906D02046FFF7B4FD8E
:104B900010B10120286000E02E6002222946204644
:104BA000FFF769FB03E011462046FFF73FFB38465D
:104BB000BDE8F08170B5054608780C4610F060003D
:104BC00003D0202801D0402816D195F89C02012856
:104BD00003D0022801D003280ED1207901280BD858
:104BE000D5F8B402826828469047E188014306D18F
:104BF0002846FFF74DFB02E02846FFF717FB002091
:104C000070BD704700487047D41000202DE9F04770
:104C10000C78002630F8243048F68F121340CA78FA
:104C2000002A78D0012A7CD0022A02D0032A75D02B
:104C3000012648F28002134320F824300D7830F822
:104C4000253048F68F7423402B43134320F825303A
:104C50000D7B48F2C00948F6BF734CF2800A4BF650
:104C60008F77EDB3CD7891F800C0022D30F82C503D
:104C70007DD048F68F6805EA0805154320F82C50CA
:104C8000B0F8505091F800C0054405EB0C15B1F890
:104C900008C02CF0010CA5F800C4B0F8505091F8F1
:104CA00000C0054405EB0C15B1F80AC02CF0010C4E
:104CB000A5F808C44D78002D7ED00D7830F825C0B9
:104CC0005FEA4C4C07D530F825C00CEA040C4CEADE
:104CD0000A0C20F825C091F800C030F82C5000E0F4
:104CE00022E06D0606D530F82C50254045EA09052E
:104CF00020F82C50CC780D78012C30F8254004EAAF
:104D000003047CD084F02003134320F82530C1E055
:104D100001E006E002E043F400738AE743F4C06375
:104D200087E743F4806384E74D784DB3B0F8505083
:104D30000F78054405EB0715CF8827F00107A5F884
:104D400000740F7830F827506D0606D530F82750DC
:104D5000254045EA090520F82750CC78012C07D0DA
:104D60000C7830F82410194081F0200104E064E050
:104D70000C7830F824101940114320F8241090E0EA
:104D8000B0F850300D78034403EB0513CD8825F0BF
:104D90000105A3F80854B0F850300D78034403EB34
:104DA0000513B3F80C54C5F30905A3F80C540D69A9
:104DB00003F20C433E2D00E045E00BD94FEA551CB1
:104DC000ED0601D1ACF1010C1D884FF4004848EA12
:104DD0008C2C0BE035B34FEA550CED0701D00CF1EC
:104DE000010C1D884FF6FF7808EA8C2C45EA0C056B
:104DF0001D800D7830F825305B0408D500E046E0D2
:104E000030F82530234043EA0A0320F8253009789A
:104E100061B130F821303B4083F40053134320F854
:104E200021303EE01D8845F40045E1E70188394026
:104E300081F440511143018033E0254048F280184D
:104E400045EA08051AE791F800C030F82C506D04C7
:104E500006D530F82C50254045EA0A0520F82C509C
:104E600091F800C030F82C506D0606D530F82C5063
:104E7000254045EA090520F82C500D7830F82540EA
:104E80003C4084F44054144320F8254070E7144318
:104E900020F825400B7830F823103940114320F8D2
:104EA00023103046BDE8F087F0B50023084A094DCD
:104EB0000BE014885688641C04F07F04B44203D0CD
:104EC000C65C1788EE5514805B1C8B42F1D3F0BD95
:104ED00094000020500300202DE9F041104E0025E1
:104EE00006F180070F4C15E06088315C6088401C3B
:104EF00000F07F0060800A2906D0A0883F2808D2F1
:104F00003954401CA08005E00548A188803000F09D
:104F1000DDFCA580608821888842E5D1BDE8F0816C
:104F2000500300209400002010B50446FBF73CFA23
:104F300081B22046BDE81040FBF796BB00207047C9
:104F40002DE9F04391F80C804F780A7848F6BF7C41
:104F50004BF68F7948F2800348F2C0054CF2800688
:104F600048F68F74B8F1000F28D0002F30F8227067
:104F70004FEA474748D0002F05DA30F82270274023
:104F8000374320F822700A7830F822707F0605D562
:104F900030F8227027402F4320F822700D7830F827
:104FA00025202240324320F825200C7830F8242098
:104FB00002EA0C021A4320F824201AE07FB130F8EC
:104FC0002260760605D530F8226026402E4320F870
:104FD00022600A7830F8221001EA0C010EE030F865
:104FE00022506D0405D530F822502540354320F875
:104FF00022500A7830F8221001EA0901194320F8FA
:1050000022100020BDE8F083002F05DA30F822706E
:105010002740374320F822700A7830F8226076065D
:1050200005D530F8226026402E4320F822600E7805
:1050300030F8262022402A4320F826200C7830F829
:10504000242002EA09021A4320F82420C1E70020A4
:10505000704700207047012120F8401F0021018087
:10506000818001820846704730F8401F21F43F419B
:105070000180002070470020704730B50A7BB2BB2A
:105080004A7848F68F7548F28004C2B10B7830F840
:105090002320520607D530F823202A4048F2C005C5
:1050A0002A4320F82320CA78012A20D00A7830F831
:1050B000221048F6BF73194081F0200114E00A78ED
:1050C00030F822305B0407D530F822302B404CF208
:1050D00080052B4320F822300A7830F822104BF656
:1050E0008F73194081F44051214320F82210002091
:1050F00030BD10B54A780978002A48F2800330F8AC
:10510000212005D048F6BF74224082F0100204E04E
:105110004BF68F74224082F480521A4320F82120EB
:10512000002010BD2DE9F0470D464B78097B044661
:105130004FF0000948F68F7248F2800A4FF400479A
:105140004FF6FF78012B09D000296FD0E8780228AC
:105150006DD001286CD00120BDE8F087AE692869C8
:10516000864200D9064691B1E97802291ED0286A04
:10517000801B2862287834F820104906B4F85010B3
:10518000214401EB001073D5A0F80C6416E1B3B212
:10519000EA882046696900F067FAB4F85000297877
:1051A000204400EB0110A0F804640DE1296A81425B
:1051B00077D9297834F82100104048F28012104342
:1051C00024F82100286A801B2862287834F82010EF
:1051D0004906697871D511B101292AD030E0B4F8B7
:1051E0005010214401EB0010B0F80C14C1F3090178
:1051F000A0F80C1400F20C403E2E07D97109F206FB
:1052000000D1491E028847EA812107E04EB17108AA
:10521000F20700D0491C028808EA81210A43028073
:105220000EE0018841F40041018009E0F1E020E155
:1052300095E1B4F85020111901EB0010A0F80C64AE
:105240006A89B3B22046696900F00EFA6869304491
:1052500068612969286A884202D9801B286202E0B5
:105260000646C5F82090687818B101282BD032E0A6
:105270002FE0B4F850002978204400EB0110B0F87A
:105280000414C1F30901A0F8041400F204403E2EF6
:1052900008D97109F20600D1491E028847EA812126
:1052A00008E0A1E056B17108F20700D0491C02885D
:1052B00008EA81210A4302800DE00EE0018841F4F2
:1052C0000041018007E0B4F850002978204400EB49
:1052D0000110A0F804642A8971E011B1012927D0D6
:1052E0002DE0B4F85010214401EB0010B0F8041484
:1052F000C1F30901A0F8041400F204403E2E07D9BE
:105300007109F20600D1491E028847EA812107E0AF
:105310004EB17108F20700D0491C028808EA8121C9
:105320000A4302800BE0018841F40041018006E05D
:10533000B4F85010214401EB0010A0F804642A894D
:10534000B3B22046696900F08FF96869304468613A
:105350002969286A884202D9801B286202E0064631
:10536000C5F82090687810B1012836D026E0B4F84E
:1053700050002978204400EB0110B0F80C14C1F360
:105380000901A0F80C1400F20C403E2E07D9710957
:10539000F20600D1491E028847EA812107E04EB19A
:1053A0007108F20700D0491C028808EA81210A43EB
:1053B000028003E0018841F4004101806A89B3B2B0
:1053C0002046696900F050F9297834F8210048F640
:1053D000BF72104080F030000FE1B4F8501008198F
:1053E000297800EB0110CFE62A7834F8220048F63D
:1053F0008F63184040EA0A0024F82200B4F85000F5
:105400002A78204400EB02108BB2A0F804342A89D9
:10541000D6E7A9692869814202D9091AA96102E07F
:105420000846C5F81890B4F850102A78214401EBCA
:105430000211B1F80C24C2F30902A1F80C2401F204
:105440000C413E287DD94209C00600D1521E088871
:1054500047EA82220AE0088840F4004007E0420858
:10546000C00700D0521C088808EA82221043088036
:10547000BBE033BBB4F850002978204400EB0110A6
:10548000B0F80414C1F30901A0F80414296900F26A
:1054900004403E2907D94B09C90600D15B1E01888B
:1054A00047EA832307E041B14B08C90700D05B1CE2
:1054B000018808EA8323194302E0018841F400418E
:1054C0000180687810B1012828D030E0B4F850008D
:1054D0002978204400EB0110B0F80C14C1F3090145
:1054E000A0F80C14296900F20C403E2907D94B0999
:1054F000C90600D15B1E018847EA832307E041B15A
:105500004B08C90700D05B1C018808EA83231943B4
:1055100002E0018841F40041018008E0B4F8501035
:105520000819297800EB0110298AA0F80C14E86901
:10553000C0B3297834F82100430401D5430605D4CB
:1055400000E046E044F2400318424ED134F8210016
:10555000104048F2C002104324F8210045E0A96938
:105560002869814202D9091AA96102E00846C5F8F2
:10557000189013BBB4F850102A78214401EB0211A3
:10558000B1F80424C2F30902A1F8042401F2044191
:105590003E2808D94209C30600D1521E0B8847EAAB
:1055A000822208E021E078B14208C30700D0521CF3
:1055B0000B8808EA822213430B80697800293FF4A4
:1055C0002EAF012909D010E00A8842F400420A8077
:1055D000F3E700287FF443AF3DE7B4F850201119FA
:1055E0002A7801EB0211A1F80C04297834F8210083
:1055F0004BF68F72104080F4405040EA0A0024F8C5
:1056000021000020A8E50021A0F844104FF43F41FC
:10561000A0F84010002070470148FCF743BD00008F
:10562000F4120020B0F844007047000010B500EB01
:1056300042005C0800F5806009D000BF30F8042B00
:1056400001F8012B120A01F8012B641EF6D1DA07CA
:1056500001D00088087010BD0020704711B980216A
:10566000A0F84C100020704710B55B1C00EB420006
:105670005B0800F5806009D011F8012B11F8014B8F
:1056800042EA042220F8042B5B1EF5D110BDFEE790
:105690000907090E002804DB00F1E02080F800145F
:1056A000704700F00F0000F1E02080F8141D7047F3
:1056B0003EB505460120CDE900100620029069465E
:1056C0002846FBF7A5FC18B92846FBF7A9FE08B148
:1056D00000203EBD0A212846FBF704FE002828468C
:1056E00002D0FBF7FDFEF3E7FBF710FD84B228467E
:1056F000FBF7F6FE20463EBD2DE9F04116000F46B1
:10570000804602D000252C4609E00020BDE8F0814B
:1057100039464046FFF7CCFF641C0544E4B2B4426E
:10572000F6D3B5FBF6F080B2F0E7002801DA0020EE
:1057300070474FF420418842FADD08467047000068
:10574000FCF7CCF8FEF78BFAFDF772FDFDF7E2FCF3
:10575000FDF726FDFDF7D8FDFDF73EFEFEF728F824
:10576000FDF79AFCFAF7B8FFFBF7EEF8FDF78CFEB1
:10577000FDF79AFFFDF7E4FEFCF7A2F8514CA0619B
:10578000FCF79EF8E061FCF79BF820624E4E4FF468
:10579000C06A4FF0FF384FF000094FF4FA7701224A
:1057A00051463046FCF787F8FCF78AF80546FDF7C6
:1057B00089FFFDF709FFFFF78FFBE06B801C0ED020
:1057C000E06B002804DBE06BFDF7A8FEC4F83C802A
:1057D000E078012808D0E078022809D00DE0C4F86C
:1057E0003C80FDF761FFF3E784F80390012002E0BD
:1057F00084F803900220FDF7BBFEE069281A052813
:1058000002D3E561FAF7C4FFA069281A0A284CD32D
:10581000A5610A20FDF7A8FB0020FDF725FC6062CA
:105820000120FDF721FCA0620020FDF7FBFBA0801A
:105830000120FDF7F7FBE0800020FDF721FCE0628E
:105840000120FDF71DFC20630020FAF723FF2081D3
:105850000120FAF71FFF6081FAF738FFA0810021CD
:105860000846FAF723FFE08101210020FAF71EFF26
:10587000208200210120FAF719FF608201210846E9
:10588000FAF714FFA082FDF7D9FD6063FDF7DCFD98
:105890002070FDF7DFFDA063FDF7CAFD6070FDF726
:1058A000EDFDA070FDF7DCFD2064206A281AB842E7
:1058B000FFF475AF25624FF480713046FBF7F3FFBC
:1058C0006DE70000000000200008014070B50C46A4
:1058D000054601E0641EA4B234B1281910F8010C89
:1058E0000D28F7D00A28F5D000202855002C60D0CC
:1058F000062C05D906222FA12846FAF774FD20B1FF
:105900000C2C33D0052C44D049E0002015F8063F7C
:10591000024601462D2B01D101226D1C6FF02F0490
:105920002B78A3F13006092E07D800EB800004EB9A
:105930004000012118446D1CF2E729B102B1404238
:10594000002803DA002004E01CA029E0642800DD20
:10595000642000EB80004003642190FBF1F0FDF730
:10596000DDFD08B119A01BE01AA019E00C221DA151
:105970002846FAF738FD30B10C221EA12846FAF766
:1059800032FD10B10BE0012000E00220FDF7F0FD38
:10599000E8E705221BA12846FAF725FD20B11BA048
:1059A000BDE87040FFF7C0BAFDF77EFEFDF7C8FD09
:1059B000D8E770BD50495443483A00004552523A26
:1059C0004241445F56414C55450D0A004F4B0D0A6C
:1059D000000000004552523A4E4F545F5245414438
:1059E000590D0A0053435245454E3A504F525452B6
:1059F0000000000053435245454E3A4C414E44533B
:105A00000000000052455345540000004552523AF0
:105A1000554E4B4E4F574E0D0A00000030B50A4C04
:105A200042EA4101CAB2215C084B42EA8101C9B293
:105A3000595631B1064B03EB00131D680D441D6030
:105A40001972225430BD00005E000020905A0008F8
:105A500030030020010202030405060708090A0BAF
:105A60000C0D0E0F101001020203040506070809B1
:105A70000A0B0C0D0E0F10100000000000000000BB
:105A800001020304060708090000000001020304E4
:105A900000FF0100010000FFFF0000010001FF0006
:105AA0000100020003000000C85A000800000020A6
:105AB000100200006C010008945B00081002002036
:105AC000201A0000C801000801385AFF01413201C4
:105AD00082100313127A2922092454C113C9421BCC
